:1000000010C022C021C020C01FC01EC01DC01CC007
:100010001BC01AC019C018C017C016C015C014C024
:1000200013C011241FBECFE5D2E0DEBFCDBF10E06C
:10003000A0E6B0E0ECEAF0E002C005900D92A43733
:10004000B107D9F702D030C0DBCFCDB7DEB76497A8
:100050000FB6F894DEBF0FBECDBF84E1E0E6F0E05E
:10006000DE01119601900D928A95E1F78FEF8ABB20
:1000700084BB11BA9E012B5E3F4FFE0131968081F9
:10008000329685BB80E08BBB4FE35DE093E041504F
:1000900050409040E1F700C000008F5F8A3099F730
:0C00A000E217F30761F7E9CFF894FFCFF7
:1000AC003F0006005B004F0066006D007D000700FE
:0400BC007F0067005A
:00000001FF
