:1000000010C022C021C020C01FC01EC01DC01CC007
:100010001BC01AC019C018C017C016C015C014C024
:1000200013C011241FBECFE5D2E0DEBFCDBF10E06C
:10003000A0E6B0E0E2EDF0E002C005900D92A0383D
:10004000B107D9F702D043C0DBCFCDB7DEB7A09759
:100050000FB6F894DEBF0FBECDBF80E2E0E6F0E061
:10006000DE01119601900D928A95E1F78FEF8ABB20
:1000700084BBBE016F5D7F4F40E130E28E010F5FB8
:100080001F4FFE01319689E190E04BBBD8012C91C6
:1000900025BBA1EEB4E01197F1F700C000003BBB17
:1000A000208125BBA1EEB4E01197F1F700C000005C
:1000B0001BBA15BA0197009741F732966E177F0762
:1000C00011F70E5F1F4F60177107D9F6D7CFF8945D
:0200D000FFCF60
:1000D2003F0006005B004F0066006D007D000700D8
:1000E2007F00670077007C0039005E0079007100B4
:00000001FF
