:1000000010C017C016C015C014C013C012C011C054
:1000100010C00FC00EC00DC00CC00BC00AC009C07C
:1000200008C011241FBECFE5D2E0DEBFCDBF02D095
:1000300044C0E6CF8FEF8ABB84BB50E191E040E83B
:1000400070E460E25BBB95BB85B322E030E08134B5
:1000500038F521E030E0E7EAF1E63197F1F700C04A
:10006000000085B3880F85BB85B38134A0F32F5F73
:100070003F4F2530310531F32230310589F02330EF
:10008000310599F04BBB95BB85B324E030E081345A
:1000900010F35BBB95BB85B322E030E08134C8F23E
:1000A0006BBB95BB85B38134B0F27BBB95BB85B38D
:0E00B00023E030E0813478F2E5CFF894FFCF02
:00000001FF
