:1000000010C022C021C020C01FC01EC01DC01CC007
:100010001BC01AC019C018C017C016C015C014C024
:1000200013C011241FBECFE5D2E0DEBFCDBF10E06C
:10003000A0E6B0E0E4E6F3E002C005900D92A4373C
:10004000B107D9F702D08CC1DBCFCDB7DEB7669749
:100050000FB6F894DEBF0FBECDBF84E1E0E6F0E05E
:10006000DE01119601900D928A95E1F78FEF8ABB20
:1000700084BB11BA1E8A1D8A10E8C12E00E4D02E5E
:1000800080E2E82E90E1F92E28EEA22E23E0B22E97
:1000900034E6532E48E2442E5DEC352E6DEC662E90
:1000A0006CEC762E75E0272E00E010E060E070E04A
:1000B00020E030E080E090E0E0E0F0E08AC08D8871
:1000C0009E884AE050E0892809F07FC00A9DD0014F
:1000D0000B9DB00D1A9DB00D1124569EA001579E88
:1000E000500D1124A40FB51FA901440F551F440F33
:1000F000551F420F531F440F551FA40FB51F8A0FE2
:100100009B1F9801220F331F220F331F200F311F17
:10011000220F331F260F371F429EA001439E500D12
:100120001124841B950BB501F4D08B0164E670E0BB
:10013000F0D0492F440F440B542F5370A82FAF70A9
:100140009C01329522952F7023273F7023272F7013
:100150002A0F392F3F70230F392F32953F70230F0D
:10016000250F239D312D1124532F569556953C7FF5
:10017000350F231B4C7F240F022E000C330B821BE8
:10018000930B869DA001879D500D969D500D1124C7
:10019000DA01A170B07857FF04C01197AE6FBF6F3E
:1001A00011962A9EC0012B9E900D1124820F931F41
:1001B00057FF02C04F5F5F4F9A01359527959924ED
:1001C00093949D8A1E8A4AE050E0E233F10509F4D7
:1001D00068C0CBBAAC01440F551F88248394912C7E
:1001E0008C0E9D1E480D591DDA014C9145BBA1EEA8
:1001F000B4E01197F1F700C00000DBBAA901440F89
:10020000551F88248394912C8C0E9D1E480D591DDA
:10021000DA014C9145BBA1EEB4E01197F1F700C0B3
:100220000000EBBAAB01440F551F88248394912C36
:100230008C0E9D1E480D591DDA014C9145BBA1EE57
:10024000B4E01197F1F700C00000FBBAA801440F19
:10025000551F88248394912C8C0E9D1E480D591D8A
:10026000DA014C9145BBA1EEB4E01197F1F700C063
:1002700000001BBA15BA87992EC0869B2AC0E133AD
:10028000F10539F5E1E0F0E0829919CF4D895E89F9
:100290004130510571F146E050E0E233F10509F0DB
:1002A00098CF01968A3091050CF406CF2F5F3F4F0F
:1002B000241735070CF4FECE6F5F7F4F6A3071054F
:1002C0000CF4F6CE0F5F1F4F041715070CF4EECE9B
:1002D000EBCE3196D9CFE133F105C1F0319680B341
:1002E00080E090E020E030E060E070E000E010E0CE
:1002F000CBCF1D8A1E8A46E050E080E090E020E0EF
:1003000030E060E070E000E010E05FCFE1E0F0E0BE
:10031000E6CF97FB072E16F4009406D077FD08D0A1
:100320000BD007FC05D03EF4909581959F4F089522
:10033000709561957F4F0895AA1BBB1B51E107C0C3
:10034000AA1FBB1FA617B70710F0A61BB70B881F65
:10035000991F5A95A9F780959095BC01CD010895F4
:04036000F894FFCF3F
:100364003F0006005B004F0066006D007D00070043
:040374007F0067009F
:00000001FF
