:1000000010C017C016C015C014C013C012C011C054
:1000100010C00FC00EC00DC00CC00BC00AC009C07C
:1000200008C011241FBECFE5D2E0DEBFCDBF02D095
:1000300030C0E6CF8FEF8ABB84BB70E26DE650E440
:1000400047E030E826E682E390E0E1EEF4E0319725
:10005000F1F700C000007BBB65BBE1EEF4E0319737
:10006000F1F700C000005BBB45BBE1EEF4E0319767
:10007000F1F700C000003BBB25BBE1EEF4E0319797
:10008000F1F700C000001BBA15BA01970097E9F616
:06009000DACFF894FFCF67
:00000001FF
