:1000000010C022C021C020C01FC01EC01DC01CC007
:100010001BC01AC019C018C017C016C015C014C024
:1000200013C011241FBECFE5D2E0DEBFCDBF10E06C
:10003000A0E6B0E0E6E9F1E002C005900D92A43739
:10004000B107D9F702D0A5C0DBCFCDB7DEB7649733
:100050000FB6F894DEBF0FBECDBF84E1E0E6F0E05E
:10006000DE01119601900D928A95E1F78FEF8ABB20
:1000700084BB11BA80E8E82E90E4F92E00E210E18A
:1000800060E070E0A0E0B0E040E050E020E030E070
:1000900080E090E0EBBAF901EE0FFF1FCC24C3948F
:1000A000D12CCC0EDD1EEC0DFD1DE081E5BBE1EE9B
:1000B000F4E03197F1F700C00000FBBAFA01EE0F4F
:1000C000FF1FCC24C394D12CCC0EDD1EEC0DFD1DE6
:1000D000E081E5BBE1EEF4E03197F1F700C000000C
:1000E0000BBBFD01EE0FFF1FCC24C394D12CCC0E13
:1000F000DD1EEC0DFD1DE081E5BBE1EEF4E0319786
:10010000F1F700C000001BBBFB01EE0FFF1FCC246A
:10011000C394D12CCC0EDD1EEC0DFD1DE081E5BBA2
:10012000E1EEF4E03197F1F700C000001BBA15BA18
:10013000879B08C020E030E040E050E0A0E0B0E065
:1001400060E070E086991DC001968233910509F048
:10015000A1CF2F5F3F4F2A3031050CF499CF4F5F6D
:100160005F4F4A3051050CF491CF1196AA30B1057A
:100170000CF48ACF6F5F7F4F6A3071050CF482CF29
:100180007FCF8133910511F0019684CF81E090E01B
:0601900081CFF894FFCFBF
:100196003F0006005B004F0066006D007D00070013
:0401A6007F0067006F
:00000001FF
