:1000000010C022C021C020C01FC01EC01DC01CC007
:100010001BC01AC019C018C017C016C015C014C024
:1000200013C011241FBECFE5D2E0DEBFCDBF10E06C
:10003000A0E6B0E0EAE4FCE002C005900D92A43C2A
:10004000B107D9F70CD4FFC5DBCFCF93DF93FC0109
:10005000AB018FEF8ABB84BB16161706B4F580E0A0
:1000600090E0A0E170E260E430E8C3EFD1E02197D6
:10007000F1F700C00000ABBB208125BBC3EFD1E08E
:100080002197F1F700C000007BBB228125BBC3EFA5
:10009000D1E02197F1F700C000006BBB248125BBA4
:1000A000C3EFD1E02197F1F700C000003BBB2681F0
:1000B00025BBC3EFD1E02197F1F700C000001BBAC8
:1000C00015BA01964817590781F6DF91CF91089527
:1000D000EF92FF920F931F93CF93DF93CDB7DEB7CD
:1000E000C557D1090FB6F894DEBF0FBECDBF8B0147
:1000F00027E2E0E6F0E0DE01A15BBF4F01900D9248
:100100002A95E1F72F961CAE1DAE1EAE1FAE2F979F
:1001100027E730E03A8329832CE730E03C832B83C8
:1001200029E330E03E832D832EE530E038872F83AE
:1001300029E730E03A87298721E730E03C872B87A1
:100140002FE630E03E872D8724E730E0388B2F877D
:1001500020E330E03A8B298B2EE130E03C8B2B8B77
:1001600020E730E03E8B2D8B28E330E0388F2F8B5B
:1001700025E130E03A8F298F24E530E03C8F2B8F4A
:100180002CE530E03E8F2D8F23E730E038A32F8F12
:1001900027E630E03AA329A340E550E05CA34BA357
:1001A0004DE650E05EA34DA368E770E078A76FA32B
:1001B0006EE370E07AA769A76CE170E07CA76BA79B
:1001C0006AE270E07EA76DA766E470E078AB6FA787
:1001D0006EE670E07AAB69AB62E570E07CAB6BAB6E
:1001E0006FE370E07EAB6DAB66E070E078AF6FAB55
:1001F0006BE570E07AAF69AF6FE470E07CAF6BAF36
:1002000066E670E07EAF6DAF21965FAF4EAF21978F
:100210004DE750E023965FAF4EAF239747E050E0A5
:1002200025965FAF4EAF25974FE750E027965FAF1B
:100230004EAF279729963FAF2EAF299720E430E0A5
:100240002B963FAF2EAF2B97AC01B8018C01005D10
:100250001F4F2FE430E02C0F3D1F295D3F4FFE0163
:10026000E15BFF4FCE0101967C01DA019C91819107
:10027000981308C0D7018D919C91DB018D939C93BD
:10028000DA019C91B2E0EB0EF11CE217F30779F76B
:10029000DA011196EC91892F990F990B8E0F911D10
:1002A000E7FD9A95892B39F04F5F5F4F6E5F7F4F67
:1002B00040175107A1F6CB58DF4F0FB6F894DEBFB9
:1002C0000FBECDBFDF91CF911F910F91FF90EF90A7
:1002D00008958F929F92BF92CF92DF92EF92FF92FA
:1002E0000F931F93CF93DF93CDB7DEB7CA58D109D1
:1002F0000FB6F894DEBF0FBECDBF8AE2E7E8F0E0AC
:10030000DE01AF59BF4F01900D928A95E1F7BE0112
:100310006F5F7F4FCE018F599F4FDADEFE0131961E
:10032000BB24BA9490E1E92E20E2F22E70E460E85A
:1003300085E0882E912C8F0120813181428184813A
:10034000958156816901C80ED91ECD2809F443C094
:10035000BABAB4BA322F282F8AE090E0A3EFB1E006
:100360001197F1F700C00000EBBA35BBA3EFB1E085
:100370001197F1F700C00000FBBA45BBA3EFB1E055
:100380001197F1F700C000007BBB25BBA3EFB1E0E4
:100390001197F1F700C000006BBB55BBA3EFB1E0B4
:1003A0001197F1F700C000001BBA15BA019700972A
:1003B000A9F6B1E08B1A91088114910409F0BCCF21
:1003C0003296D8018D919C9122813381820F931FA7
:1003D000892B09F0ADCFC657DF4F0FB6F894DEBFBB
:1003E0000FBECDBFDF91CF911F910F91FF90EF9086
:1003F000DF90CF90BF909F908F9008952F923F9263
:100400004F925F926F927F928F929F92AF92BF9224
:10041000CF92DF92EF92FF920F931F93CF93DF93D0
:10042000CDB7DEB7E3970FB6F894DEBF0FBECDBFF2
:100430008C013B0189E0E1EBF0E0DE019696019052
:100440000D928A95E1F789E0EAEBF0E0DE015D9636
:1004500001900D928A95E1F711BA80B38130C9F00D
:10046000E3960FB6F894DEBF0FBECDBFDF91CF91FC
:100470001F910F91FF90EF90DF90CF90BF90AF90C2
:100480009F908F907F906F905F904F903F902F90B4
:100490000895BE016F5F7F4FCE01869619DECE01B3
:1004A00001966C014E0199E1890E911CF6017FEFD6
:1004B00060E150E240E430E8808191819C8B8B8B3D
:1004C000828193819E8B8D8B84819581988F8F8B78
:1004D000868197819A8F898F7ABB74BB84E690E07E
:1004E000A3EFB1E01197F1F700C000006BBB2B89BF
:1004F00025BBA3EFB1E01197F1F700C000005BBB93
:100500002D8925BBA3EFB1E01197F1F700C00000E2
:100510004BBB2F8925BBA3EFB1E01197F1F700C0CA
:1005200000003BBB298D25BBA3EFB1E01197F1F78C
:1005300000C000001BBA15BA0197009789F63896DB
:100540008E169F0609F0B8CFEDEC2E2EFDECAF2EE7
:10055000FCECBF2E33243A94A0E14A2EB0E25B2E8D
:1005600080E4E82E90E8F92E80B3813109F460C16F
:1005700080B3813209F45FC180B3813409F45EC174
:1005800080B3813809F45EC180B3813F09F45EC154
:10059000083111050CF0F7C0912F990F990B492FD5
:1005A00043709801329522952F7023273F7023279F
:1005B0002F70802F8F70820F212F2F70820F212F8D
:1005C00022952F70820F840F829D212D1124322FAE
:1005D000369536952C7F230F821B9C7F890F082E22
:1005E000000C990B9801281B390B2A9DF0012B9DBB
:1005F000F00D3A9DF00D11249F0121703078F7FF26
:1006000006C0215031092E6F3F6F2F5F3F4F65E0CD
:10061000629FA001639F500D1124840F951FF7FD69
:100620003196F595E795E05DF0E3F80F8CE36816F9
:1006300071040CF4B1C040E320E3612C712CEFA7EE
:10064000F8AB29AB4AABBE016D5E7F4FCE018F96F2
:100650003FDD3ABA34BA84E690E0E3EFF1E0319757
:10066000F1F700C000004BBA2B8925BBA3EFB1E026
:100670001197F1F700C000005BBA2D8925BBE3EFAD
:10068000F1E03197F1F700C00000EBBA2F8925BBEC
:10069000A3EFB1E01197F1F700C00000FBBA298D7C
:1006A00025BBE3EFF1E03197F1F700C000001BBA82
:1006B00015BA0197009789F6809956CFBE016F5FF2
:1006C0007F4FCE014D9604DD7FEF60E150E240E4C4
:1006D00030E8D6018D919C9111979C8B8B8B129653
:1006E0008D919C9113979E8B8D8B14968D919C91DF
:1006F0001597988F8F8B16968D919C919A8F898FD5
:100700007ABB74BB84E690E0E3EFF1E03197F1F758
:1007100000C000006BBB2B8925BBA3EFB1E0119794
:10072000F1F700C000005BBB2D8925BBE3EFF1E0D2
:100730003197F1F700C000004BBB2F8925BBA3EF19
:10074000B1E01197F1F700C000003BBB298D25BB3C
:10075000E3EFF1E03197F1F700C000001BBA15BAE2
:100760000197009789F6F8E0CF0ED11C8C149D04F8
:1007700009F0AFCF24E6209FC001219F900D1124E6
:10078000860D971D6DCEF0E3E0E300E010E08CE312
:10079000681671040CF04FCF972D990F990B492FC4
:1007A00043709301329522952F7023273F702327A2
:1007B0002F70862D8F70820F272D2F70820F272D7F
:1007C00022952F70820F840F829D212D1124322FAC
:1007D000369536952C7F230F821B9C7F890F082E20
:1007E000000C990BA301481B590B4A9D90014B9D8E
:1007F000300D5A9D300D1124B9016170707837FFAA
:1008000006C0615071096E6F7F6F6F5F7F4FA5E00B
:10081000A69FA001A79F500D1124480F591F37FF15
:1008200002C02F5F3F4F35952795205D405D07CF74
:10083000065F1F4FADCE0F5F1F4FAACEBAE06B0E03
:10084000711CA6CEEFEF6E1A7E0AA2CE40E320E323
:10085000F0E3E0E300E010E0612C712CF0CECDB7C6
:10086000DEB72A970FB6F894DEBF0FBECDBF8FEF6D
:100870008ABB84BB11BA2DDD8DEC682E9DEC492E10
:100880009CEC592E25E0322E77247A94C12CD12C61
:10089000A12CB12C80E1E82E90E2F92E9D2D990F2C
:1008A000990B492F43709601329522952F7023277B
:1008B0003F7023272F708C2D8F70820F2D2D2F705E
:1008C000820F2D2D22952F70820F840F869D212D52
:1008D0001124322F369536952C7F230F821B9C7F57
:1008E000890F082E000C990BA601481B590B449D3B
:1008F0009001459D300D549D300D1124B90161705A
:10090000707837FF06C0615071096E6F7F6F6F5F3F
:100910007F4F369EA001379E500D1124840F951FE6
:1009200037FF02C02F5F3F4F35952795205D2E83FF
:10093000805D8F839B2D990F990B492F43709501F3
:10094000329522952F7023273F7023272F708A2DF1
:100950008F70820F2B2D2F70820F2B2D22952F70D1
:10096000820F840F869D212D1124322F36953695C6
:100970002C7F230F821B9C7F890F082E000C990B64
:10098000A501481B590B449D9001459D300D549D78
:10099000300D1124B9016170707837FF06C06150C5
:1009A00071096E6F7F6F6F5F7F4F369EA001379E1C
:1009B000500D1124840F951F37FF02C02F5F3F4F4A
:1009C00035952795205D2887805D8987BE016F5FFB
:1009D0007F4FCE0106967CDBACE38A2E912C00E49F
:1009E00010E880B3813009F45AC080B3823009F432
:1009F0004BC07ABA74BA84E690E0E3EFF1E0319745
:100A0000F1F700C00000EBBA298125BBE3EFF1E06C
:100A10003197F1F700C00000FBBA2B8125BBE3EF53
:100A2000F1E03197F1F700C000000BBB2D8125BB31
:100A3000E3EFF1E03197F1F700C000001BBB2F811D
:100A400025BBE3EFF1E03197F1F700C000001BBADE
:100A500015BA0197009789F6F1E08F1A9108811471
:100A6000910409F0BECF8FEFA81AB80AECE3AE16D6
:100A7000B1040CF413CFFFEFCF1ADF0A88E1C816D8
:100A8000D1040CF405CF02CFB501C601B7DCF1E00B
:100A90008F1A91088114910409F0A3CFE4CFB50116
:100AA000C601ACDC64E670E0A7D06B015C013D2DB3
:100AB000330F330B632F63702C2D2F70A6015295CB
:100AC00042954F7045275F7045274F70240F4D2D7D
:100AD0004F70240F4D2D42954F70240F260F269DE9
:100AE000412D1124542F569556954C7F450F241BAC
:100AF0003C7F230FE22F220FFF0BA6014E1B5F0B43
:100B0000449D9001459D300D549D300D1124B90137
:100B10006170707837FF06C0615071096E6F7F6F2A
:100B20006F5F7F4F369EA001379E500D11244E0FF0
:100B30005F1F37FF02C02F5F3F4F35952795205D20
:100B40002E83405D4F83392F330F330B632F637038
:100B5000282F2F70AC01529542954F7045275F703A
:100B600045274F70240F492F4F70240F492F42956E
:100B70004F70240F260F269D412D1124542F56957A
:100B800056954C7F450F241B3C7F230F022E000CF3
:100B9000330B821B930B849DA001859D500D949D6A
:100BA000500D1124BA016170707857FF06C0615072
:100BB00071096E6F7F6F6F5F7F4F369EC001379EEA
:100BC000900D1124820F931F57FF02C04F5F5F4F9C
:100BD00055954795405D4887805D8987BE016F5F69
:100BE0007F4FCE01069674DAF1E08F1A91088114D6
:100BF000910409F0F6CE37CF97FB072E16F4009438
:100C000006D077FD08D00BD007FC05D03EF49095B8
:100C100081959F4F0895709561957F4F0895AA1B08
:100C2000BB1B51E107C0AA1FBB1FA617B70710F0D7
:100C3000A61BB70B881F991F5A95A9F78095909509
:0A0C4000BC01CD010895F894FFCF28
:100C4A006162636465666768696A6B6C6D6E6F7012
:100C5A007172737475767778797A303132333435C4
:100C6A00363738392D200074696D65206D616E61E3
:100C7A00676572206279206E6174652073696D619F
:100C8A0072642D77686974652032303332353734AF
:100C9A00007365742074696D650074696D652073ED
:040CAA00657400006D
:00000001FF
