:1000000010C022C021C020C01FC01EC01DC01CC007
:100010001BC01AC019C018C017C016C015C014C024
:1000200013C011241FBECFE5D2E0DEBFCDBF10E06C
:10003000A0E6B0E0EEE9FDE002C005900D92A83C1C
:10004000B107D9F7A1D4A9C6DBCFCF93DF93FC01C9
:10005000AB018FEF8ABB84BB11BA16161706B4F535
:1000600080E090E0A0E170E260E430E8C3EFD1E02E
:100070002197F1F700C00000ABBB208125BBC3EF87
:10008000D1E02197F1F700C000007BBB228125BBA6
:10009000C3EFD1E02197F1F700C000006BBB2481D2
:1000A00025BBC3EFD1E02197F1F700C000003BBBB7
:1000B000268125BBC3EFD1E02197F1F700C00000F6
:1000C0001BBA15BA01964817590781F6DF91CF91EF
:1000D0000895EF92FF920F931F93CF93DF93CDB7C5
:1000E000DEB7C557D1090FB6F894DEBF0FBECDBF3E
:1000F0008B0127E2E0E6F0E0DE01A15BBF4F01905B
:100100000D922A95E1F72F961CAE1DAE1EAE1FAEC6
:100110002F9720E430E03A83298327E730E03C83BF
:100120002B832CE730E03E832D8329E330E03887B2
:100130002F832EE530E03A87298729E730E03C8796
:100140002B8721E730E03E872D872FE630E0388B84
:100150002F8724E730E03A8B298B20E330E03C8B7B
:100160002B8B2EE130E03E8B2D8B20E730E0388F5B
:100170002F8B28E330E03A8F298F25E130E03C8F48
:100180002B8F24E530E03E8F2D8F2CE530E038A317
:100190002F8F23E730E03AA329A327E630E03CA3E2
:1001A0002BA340E550E05EA34DA34DE650E058A7D9
:1001B0004FA368E770E07AA769A76EE370E07CA7B9
:1001C0006BA76CE170E07EA76DA76AE270E078AB88
:1001D0006FA766E470E07AAB69AB6EE670E07CAB6B
:1001E0006BAB62E570E07EAB6DAB6FE370E078AF58
:1001F0006FAB66E070E07AAF69AF6BE570E07CAF43
:100200006BAF6FE470E07EAF6DAF66E670E0219695
:100210007FAF6EAF219723965FAF4EAF23974DE729
:1002200050E025965FAF4EAF259747E050E0279608
:100230005FAF4EAF27974FE750E029965FAF4EAFC5
:1002400029972B963FAF2EAF2B97AC01B8018C01AD
:10025000005D1F4F2FE430E02C0F3D1F295D3F4F05
:10026000FE01E15BFF4FCE0101967C01DA019C911A
:100270008191981308C0D7018D919C91DB018D93DA
:100280009C93DA019C91B2E0EB0EF11CE217F307AC
:1002900079F7DA011196EC91892F990F990B8E0F4E
:1002A000911DE7FD9A95892B39F04F5F5F4F6E5F87
:1002B0007F4F40175107A1F6CB58DF4F0FB6F89488
:1002C000DEBF0FBECDBFDF91CF911F910F91FF9089
:1002D000EF9008956F927F929F92AF92BF92CF92CC
:1002E000DF92EF92FF920F931F93CF93DF93CDB7DF
:1002F000DEB7CE58D1090FB6F894DEBF0FBECDBF22
:1003000089E2E7E8F0E0DE01AF59BF4F01900D92BE
:100310008A95E1F785E0E0EBF0E0DE01A657BF4FFC
:1003200001900D928A95E1F7BE016F5F7F4FCE017C
:100330008F599F4FCEDEFE0131968E010B5A1F4F13
:1003400099249A9480E1A82E90E2B92E20E4E22E1E
:1003500030E8F32E65E070E03F0120813181428179
:100360008481958156816901C80ED91ECD2809F472
:1003700046C09ABA94BA11BA322F282F8AE090E078
:10038000A3EFB1E01197F1F700C00000ABBA35BBA5
:10039000A3EFB1E01197F1F700C00000BBBA45BB75
:1003A000A3EFB1E01197F1F700C00000EBBA25BB55
:1003B000A3EFB1E01197F1F700C00000FBBA55BB05
:1003C000A3EFB1E01197F1F700C000001BBA15BA16
:1003D00001970097A9F6615071096115710509F03F
:1003E000BCCF3296D3018D919C9122813381820FB3
:1003F000931F892B21F00E171F0709F0ABCFBE0109
:100400006F5F7F4FCE0186579F4F63DEF981EB818F
:100410007D816F811FEF50E140E230E420E81ABB9C
:1004200014BB11BA82E390E0A3EFB1E01197F1F7AA
:1004300000C000005BBBF5BBA3EFB1E01197F1F783
:1004400000C000004BBBE5BBA3EFB1E01197F1F793
:1004500000C000003BBB75BBA3EFB1E01197F1F703
:1004600000C000002BBB65BBA3EFB1E01197F1F713
:1004700000C000001BBA15BA01970097A9F6BFE9A2
:1004800086E891E0B15080409040E1F700C0000064
:1004900080B3813021F6C257DF4F0FB6F894DEBF2C
:1004A0000FBECDBFDF91CF911F910F91FF90EF90C5
:1004B000DF90CF90BF90AF909F907F906F90089506
:1004C0003F924F925F926F927F928F929F92AF92E4
:1004D000BF92CF92DF92EF92FF920F931F93CF9331
:1004E000DF93CDB7DEB7E5970FB6F894DEBF0FBE4A
:1004F000CDBF7C016B0189E0E5EBF0E0DE01969673
:1005000001900D928A95E1F789E0EEEBF0E0DE01D3
:100510005D9601900D928A95E1F78FEF8ABB84BBBF
:1005200011BA80B3813009F40DC280B3823009F46E
:1005300011C2DE011196BDABACABACA8BDA8BE012B
:100540006F5E7F4FF5010FEF10E150E240E430E8BD
:10055000808191819C8B8B8B828193819E8B8D8BF3
:1005600084819581988F8F8B868197819A8F898FCF
:100570000ABB04BB11BA84E690E0A3EFB1E0119787
:10058000F1F700C000001BBB2B8925BBA3EFB1E036
:100590001197F1F700C000005BBB2D8925BBA3EFCD
:1005A000B1E01197F1F700C000004BBB2F8925BBCC
:1005B000A3EFB1E01197F1F700C000003BBB298D1C
:1005C00025BBA3EFB1E01197F1F700C000001BBA03
:1005D00015BA0197009789F638966E177F0709F0CC
:1005E000B7CFEDEC3E2EFDEC8F2EFCEC9F2EA5E060
:1005F0004A2E55245A94B0E16B2E10E2712E00E47D
:1006000010E880B3813151F180B3823139F180B388
:10061000813209F48BC180B3823209F487C180B37F
:10062000813409F487C180B3823409F483C180B373
:10063000813809F483C180B3823809F47FC180B363
:10064000813F19F080B3823F61F440E320E3F0E39F
:10065000E0E3E12CF12CC12CD12CA0C0BAE0EB0ED0
:10066000F11C98E1E916F1040CF05BC19F2D990F84
:10067000990B492F43709701329522952F702327AC
:100680003F7023272F708E2D8F70820F2F2D2F708C
:10069000820F2F2D22952F70820F840F839D212D85
:1006A0001124322F369536952C7F230F821B9C7F89
:1006B000890F082E000C990B9701281B390B289DD8
:1006C000F001299DF00D389DF00D11249F0121703E
:1006D0003078F7FF06C0215031092E6F3F6F2F5F32
:1006E0003F4F429EA001439E500D1124840F951F41
:1006F000F7FD3196F595E795E05DF0E3F80FACE393
:10070000CA16D1040CF008C19D2D990F990B492FE1
:1007100043709601329522952F7023273F7023272F
:100720002F708C2D8F70820F2D2D2F70820F2D2DFD
:1007300022952F70820F840F839D212D1124322F3B
:10074000369536952C7F230F821B9C7F890F082EB0
:10075000000C990BA601481B590B489D9001499D1F
:10076000300D589D300D1124B9016170707837FF3C
:1007700006C0615071096E6F7F6F6F5F7F4F469E3D
:10078000A001479E500D1124480F591F37FF02C08A
:100790002F5F3F4F35952795205D405DEFA7F8AB64
:1007A00029AB4AABBE016D5E7F4FCE018F9691DCC7
:1007B0005ABA54BA11BA84E690E0E3EFF1E0319707
:1007C000F1F700C000006BBA2B8925BBA3EFB1E0A5
:1007D0001197F1F700C000007BBA2D8925BBE3EF2C
:1007E000F1E03197F1F700C000000BBB2F8925BB6A
:1007F000A3EFB1E01197F1F700C000001BBB298DFA
:1008000025BBE3EFF1E03197F1F700C000001BBA20
:1008100015BA0197009789F68099F3CE8199F1CEA8
:100820006CA97DA968517109FFEFE0E150E240E455
:1008300030E8D50150968D919C9151979C8B8B8B74
:1008400052968D919C9153979E8B8D8B54968D9142
:100850009C915597988F8F8B56968D919C919A8FDE
:10086000898FFABBF4BB11BA84E690E0A3EFB1E044
:100870001197F1F700C00000EBBB2B8925BBA3EF5C
:10088000B1E01197F1F700C000005BBB2D8925BBDB
:10089000A3EFB1E01197F1F700C000004BBB2F8927
:1008A00025BBA3EFB1E01197F1F700C000003BBBFF
:1008B000298D25BBA3EFB1E01197F1F700C000002F
:1008C0001BBA15BA0197009789F6B8E0AB1AB108C0
:1008D0006A157B0509F0ADCF24E62E9DC0012F9D42
:1008E000900D11248C0D9D1DE5960FB6F894DEBF7A
:1008F0000FBECDBFDF91CF911F910F91FF90EF9071
:10090000DF90CF90BF90AF909F908F907F906F902F
:100910005F904F903F90089540E320E3C12CD12C8D
:100920003DCFF0E3E0E3E12CF12CE9CEEFEFEE1A5E
:10093000FE0A97CEFAE0CF0ED11C93CE8FEFC81AE5
:10094000D80A8FCECE0101969DAB8CABBC018596AB
:10095000C0DBF3CDFE013196FDABECABBF01CE01A8
:100960004D96B7DBEACD9C0164E670E0EFD1CB0198
:10097000672B39F0203B344034F06CE070E0E6D176
:1009800008958CE090E00895CDB7DEB764970FB678
:10099000F894DEBF0FBECDBF85E0E2ECF0E0DE01F3
:1009A0001B9601900D928A95E1F78FEF8ABB84BB6D
:1009B00011BA90DC612C712C14E6812E912C332419
:1009C0003A9400E1402E80E2582E00E410E8C12C59
:1009D000D12CA12CB12C84E68C9D70018D9DF00C46
:1009E0001124EA0CFB1CC70168EE73E0AFD19C0137
:1009F000829B25C1C701B401A9D16115710509F414
:100A000032C180EBE81684E0F8060CF02FC1472FC6
:100A1000440F440B842F8370962F9F70FB01F29537
:100A2000E295EF70EF27FF70EF27EF709E0F572FC3
:100A30005F70950F572F52955F70950F980F8DEC43
:100A4000989F812D1124582F569556958C7F850F90
:100A5000981B4C7F940FE92F990FFF0BAB014E1B96
:100A60005F0B6DEC7CEC469FC001479F900D569F3D
:100A7000900D1124BC016170707897FF06C0615021
:100A800071096E6F7F6F6F5F7F4FA5E0A69FA0011A
:100A9000A79F500D11244E0F5F1F97FD019695954E
:100AA0008795E0E3E80F405DE88B498BC901B4010D
:100AB0004DD1AC01352F330F330B832F8370942F1F
:100AC0009F70BA01729562956F7067277F70672774
:100AD0006F70960F252F2F70920F252F22952F7054
:100AE000920F980F8DEC989F812D1124282F269519
:100AF00026958C7F820F292F281B3C7F230F022EE7
:100B0000000C330B421B530BEDECFCEC4E9FC00171
:100B10004F9F900D5E9F900D1124BC016170707805
:100B200097FF06C0615071096E6F7F6F6F5F7F4FD7
:100B3000E5E0E69FA001E79F500D1124240F351F2B
:100B400097FD019695958795805D8A8B205D2B8B0F
:100B5000BE016F5F7F4FCE014096BBDA829B16C00D
:100B6000C6010C970C9760F489819A8180589F4F39
:100B70009A8389838B819C8180589F4F9C838B8330
:100B80008F81988580589F4F98878F8340E050E0F1
:100B900080995CC0819962C0E614F70421F4433067
:100BA00051050CF490C03ABA34BA11BA84E690E018
:100BB000E3EFF1E03197F1F700C000004BBA298173
:100BC00025BBE3EFF1E03197F1F700C000005BBA1D
:100BD0002B8125BBE3EFF1E03197F1F700C0000076
:100BE0000BBB2D8125BBE3EFF1E03197F1F700C09E
:100BF00000001BBB2F8125BBE3EFF1E03197F1F73C
:100C000000C000001BBA15BA0197009789F610BA08
:100C10004F5F5F4F4C33510509F0BACFFFEFAF1A6A
:100C2000BF0A6CE3A616B1040CF4D5CE7FEFC71A49
:100C3000D70A88E1C816D1040CF4CBCEC8CEE0E3C5
:100C4000E60FB40183D040E3460F2ECFB501C601B5
:100C500037DCB4017BD06B015C01E3CFB501C60189
:100C60002FDC3C01B8CE42E3E1E31ECFCB016CE0C8
:100C700070E06CD0AC01652F660F660B862F837019
:100C8000942F9F70FA01F295E295EF70EF27FF70B5
:100C9000EF27EF709E0F752F7F70970F752F72954E
:100CA0007F70970F980F8DEC989F812D1124782FCE
:100CB000769576958C7F870F981B6C7F960FE92F22
:100CC000990FFF0BCCCEDD24DA9480E1E82E90E280
:100CD000F92E00E410E8BE016F5F7F4FCE010B9646
:100CE000F8D9DABAD4BA11BA84E690E0E3EFF1E0C9
:100CF0003197F1F700C00000EBBA298125BBE3EF83
:100D0000F1E03197F1F700C00000FBBA2B8125BB61
:100D1000E3EFF1E03197F1F700C000000BBB2D814C
:100D200025BBE3EFF1E03197F1F700C000001BBBFA
:100D30002F8125BBE3EFF1E03197F1F700C0000010
:100D40001BBA15BA0197009789F6C5CF97FB072EF6
:100D500016F4009406D077FD08D00BD007FC05D020
:100D60003EF4909581959F4F0895709561957F4FC2
:100D70000895AA1BBB1B51E107C0AA1FBB1FA617E2
:100D8000B70710F0A61BB70B881F991F5A95A9F734
:0E0D900080959095BC01CD010895F894FFCF99
:100D9E002D6162636465666768696A6B6C6D6E6F00
:100DAE00707172737475767778797A303132333434
:100DBE003536373839200074696D65207379737450
:100DCE00656D206279206E6174652073696D617244
:100DDE00642D7768697465203230333235373400CC
:100DEE0030303030007365742074696D6500736542
:080DFE007420616C726D0000AD
:00000001FF
