:1000000010C022C021C020C01FC01EC01DC01CC007
:100010001BC01AC019C018C017C016C015C014C024
:1000200013C011241FBECFE5D2E0DEBFCDBF10E06C
:10003000A0E6B0E0E8E0F2E002C005900D92AE3D2F
:10004000B107D9F745D0DEC0DBCF0F931F93CF9315
:10005000DF93D8019FEF9ABB94BB11BA1A161B0607
:1000600094F5E0E0F0E070E150E230E490E8C3EFB6
:10007000D1E02197F1F700C000007BBB85BBC3EF47
:10008000D1E02197F1F700C000005BBB65BBC3EF77
:10009000D1E02197F1F700C000003BBB45BBC3EFA7
:1000A000D1E02197F1F700C000009BBB25BBC3EF57
:1000B000D1E02197F1F700C000001BBA15BA3196C4
:1000C000AE17BF07A1F6DF91CF911F910F91089551
:1000D000CDB7DEB7CE5AD1090FB6F894DEBF0FBE4A
:1000E000CDBF87E2E7EBF0E0DE01A857BF4F0190FC
:1000F0000D928A95E1F787E2E0E6F0E0DE01AF5984
:10010000BF4F01900D928A95E1F785E1E7E8F0E0B5
:10011000DE01D19601900D928A95E1F7FE01EA5B2E
:10012000FF4F8BE1DF011D928A95E9F78FEF8ABBC4
:1001300084BB11BA88E8E82EF12CEC0EFD1EB7E264
:10014000EB0EF11C5E01E5E1AE0EB11CAE014F5CA1
:100150005F4FCE0101966C019C01DA019D91AD01CA
:10016000FE01E857FF4FBE016F597F4F81919813F1
:1001700004C0DB018C91D9018C936F5F7F4FEE1629
:10018000FF06A1F7F90181919F016081082E000C03
:10019000990B860F911D67FD9A95892BF1F680B317
:1001A0008370813049F180B38370823041F180B334
:1001B000837004E610E0833011F009E110E0F601ED
:1001C0002381022E000C330B4281042E000C550BB0
:1001D0006181062E000C770B8081082E000C990B94
:1001E00034DFF4E0CF0ED11CAC14BD0409F4AECF63
:1001F00080B383708130B9F602E310E0E0CF0BE406
:0802000010E0DDCFF894FFCF00
:10020800777C395E79716F74301E703815545C7361
:1002180067506D783E1C2A466E523F065B4F666DEE
:100228007D077F674000006C6F6E676C697665724A
:100238006F636B20616E64726F6C6C00000000006D
:1002480000000000000000000000000000000000A6
:100258000000000000000061626364656667686909
:100268006A6B6C6D6E6F707172737475767778796E
:0E0278007A303132333435363738392D2000A4
:00000001FF
