:1000000010C022C021C020C01FC01EC01DC01CC007
:100010001BC01AC019C018C017C016C015C014C024
:1000200013C011241FBECFE5D2E0DEBFCDBF10E06C
:10003000A0E6B0E0E2EAF0E002C005900D92AC3735
:10004000B107D9F702D02BC0DBCFCDB7DEB76B97A6
:100050000FB6F894DEBF0FBECDBF8BE1E0E6F0E057
:10006000DE01119601900D928A95E1F78FEF8ABB20
:1000700084BB9E01245E3F4F90E4FE013196819146
:1000800085BB9BBB4FE35DE083E041505040804027
:10009000E1F700C00000E217F30789F7EECFF8940C
:0200A000FFCF90
:1000A200777C395E79716F74301E703815545C73C9
:0C00B20067506D783E1C2A466E5200001C
:00000001FF
