:1000000010C022C021C020C01FC01EC01DC01CC007
:100010001BC01AC019C018C017C016C015C014C024
:1000200013C011241FBECFE5D2E0DEBFCDBF10E06C
:10003000A0E6B0E0E0E8F1E002C005900D92AE3D30
:10004000B107D9F702D09AC0DBCFCDB7DEB7CE5A11
:10005000D1090FB6F894DEBF0FBECDBF87E2E7EB44
:10006000F0E0DE01A857BF4F01900D928A95E1F7AD
:1000700087E2E0E6F0E0DE01AF59BF4F01900D925C
:100080008A95E1F78AE1E7E8F0E0DE01D196019098
:100090000D928A95E1F7FE01E55BFF4F86E1DF01F6
:1000A0001D928A95E9F78FEF8ABB84BB11BA28E8C5
:1000B00030E02C0F3D1F295D3F4F10E8BE016F5C03
:1000C0007F4FAE014F5F5F4FFB019191BF01FE017A
:1000D000E857FF4FDE01AF59BF4F7D018191981363
:1000E00004C0D7018C91DA018C93BFEFEB1AFB0AA5
:1000F000E217F30799F780B38370813009F180B379
:100100008370823039F180B38370833069F1A3E268
:10011000B4EF1197F1F700C00000FA018191AF012F
:1001200085BB1BBB3197E081DA018C91082E000C56
:10013000990B8E0F911DE7FD9A95892B29F6BECF5D
:10014000EFE9F6E881E0E150F0408040E1F700C0DF
:100150000000E3CF9FEEA9E4B2E09150A040B04090
:10016000E1F700C00000D9CFEFE3FDE083E0E1500C
:10017000F0408040E1F700C00000CFCFF894FFCFFF
:10018000777C395E79716F74301E703815545C73EA
:1001900067506D783E1C2A466E523F065B4F666D77
:1001A0007D077F674000006E6174652073696D6133
:1001B00072642D7768697465203230333235373494
:1001C000000000000000000000000000000000002F
:1001D0000000000000000061626364656667686992
:1001E0006A6B6C6D6E6F70717273747576777879F7
:0E01F0007A303132333435363738392D20002D
:00000001FF
