:1000000010C022C021C020C01FC01EC01DC01CC007
:100010001BC01AC019C018C017C016C015C014C024
:1000200013C011241FBECFE5D2E0DEBFCDBF10E06C
:10003000A0E6B0E0E2EEF1E002C005900D92AE3D28
:10004000B107D9F702D0CBC0DBCFCDB7DEB7CE5AE0
:10005000D1090FB6F894DEBF0FBECDBF87E2E7EB44
:10006000F0E0DE01A857BF4F01900D928A95E1F7AD
:1000700087E2E0E6F0E0DE01AF59BF4F01900D925C
:100080008A95E1F785E1E7E8F0E0DE01D19601909D
:100090000D928A95E1F7FE01EA5BFF4F8BE1DF01EC
:1000A0001D928A95E9F78FEF8ABB84BB11BA28E8C5
:1000B00030E02C0F3D1F295D3F4F8E010B5E1F4F1F
:1000C00080E1A82E90E2B92E40E4E42E50E8F52E0F
:1000D000FE01F1966F01AE014F5F5F4FBA01D6018D
:1000E0009D916D01FE01E857FF4FDE01AF59BF4FF3
:1000F0004D018191981304C0D4018C91DB018C9344
:10010000BFEF8B1A9B0AE217F30799F7FB01819166
:10011000BF01E081082E000C990B8E0F911DE7FDA9
:100120009A95892BE1F680B38370813009F451C030
:1001300080B38370823009F44FC080B38370E4E6EB
:10014000F0E0833011F0E9E1F0E080E090E0A3EF2F
:10015000B1E01197F1F700C00000ABBADA016C9181
:1001600065BBA3EFB1E01197F1F700C00000BBBA87
:10017000DA0111966C9165BBA3EFB1E01197F1F72D
:1001800000C00000EBBADA0112966C9165BBA3EFD8
:10019000B1E01197F1F700C00000FBBADA01139645
:1001A0006C9165BBA3EFB1E01197F1F700C00000BF
:1001B0001BBA15BA01968E179F0749F64C5F5F4F21
:1001C0000417150709F484CF80B38370813009F0D8
:1001D000AFCFE2E3F0E0B9CFEBE4F0E0B6CFF894D4
:0201E000FFCF4F
:1001E200777C395E79716F74301E703815545C7388
:1001F20067506D783E1C2A466E523F065B4F666D15
:100202007D077F674000006C6F6E676C6976657270
:100212006F636B20616E64726F6C6C000000000093
:1002220000000000000000000000000000000000CC
:10023200000000000000006162636465666768692F
:100242006A6B6C6D6E6F7071727374757677787994
:0E0252007A303132333435363738392D2000CA
:00000001FF
