:1000000010C017C016C015C014C013C012C011C054
:1000100010C00FC00EC00DC00CC00BC00AC009C07C
:1000200008C011241FBECFE5D2E0DEBFCDBF02D095
:1000300043C0E6CF8FEF84BB11BA91E00DC0E3EF70
:10004000F1E03197F1F700C0000015BAE3EFF1E0FD
:100050003197F1F700C0000080B38F7095BB882303
:1000600071F3813069F0823091F08430B9F08830DA
:10007000E1F0E5EDF6E03197F1F700C00000E5CFE3
:10008000EDEEF2E03197F1F700C00000DECFE7EED1
:10009000F3E03197F1F700C00000D7CFE1EEF4E0D4
:1000A0003197F1F700C00000D0CFEBEDF5E03197CC
:0C00B000F1F700C00000C9CFF894FFCFAA
:00000001FF
