:1000000010C017C016C015C014C013C012C011C054
:1000100010C00FC00EC00DC00CC00BC00AC009C07C
:1000200008C011241FBECFE5D2E0DEBFCDBF02D095
:100030002DC0E6CF8FEF8ABB11BA80E090E08BBB7A
:100040002FE33DE043E0215030404040E1F700C065
:100050000000869B0CC0879913C09C012150310978
:1000600089E090E02A30310550F7C901E8CF20B38C
:10007000203849F09C012F5F3F4F80E090E0F2CFA5
:1000800089E090E0DCCF80E090E0D9CFF894FFCF1A
:00000001FF
