:1000000010C017C016C015C014C013C012C011C054
:1000100010C00FC00EC00DC00CC00BC00AC009C07C
:1000200008C011241FBECFE5D2E0DEBFCDBF02D095
:100030003CC0E6CF8FEF84BB11BA4FE336E02BE52F
:100040009FE486E645BB5FE36DE073E0515060409E
:100050007040E1F700C0000035BB5FE36DE073E086
:10006000515060407040E1F700C0000025BB5FE3E5
:100070006DE073E0515060407040E1F700C0000057
:1000800095BB5FE36DE073E0515060407040E1F775
:1000900000C0000085BB5FE36DE073E0515060403D
:0E00A0007040E1F700C00000CDCFF894FFCF14
:00000001FF
