:1000000010C017C016C015C014C013C012C011C054
:1000100010C00FC00EC00DC00CC00BC00AC009C07C
:1000200008C011241FBECFE5D2E0DEBFCDBF02D095
:1000300055C0E6CF8FEF8ABB84BB11BA5CEF40E6B8
:100040003BED72EF66E626EB0CC00497D1F125BBC1
:100050008FE39DE0E3E081509040E040E1F700C095
:10006000000055BB8FE39DE0E3E081509040E0400D
:10007000E1F700C0000045BB8FE39DE0E3E0815065
:100080009040E040E1F700C0000035BB8FE39DE009
:10009000E3E081509040E040E1F700C0000083E0E1
:1000A00090E08330910589F675BB8FE39DE0E3E036
:1000B00081509040E040E1F700C0000084E090E013
:1000C000F0CF65BB8FE39DE0E3E081509040E040DE
:1000D000E1F700C0000085E090E0E3CFF894FFCFA7
:00000001FF
