:1000000010C017C016C015C014C013C012C011C054
:1000100010C00FC00EC00DC00CC00BC00AC009C07C
:1000200008C011241FBECFE5D2E0DEBFCDBF02D095
:1000300037C0E6CF8FEF8ABB84BB11BA6CEF9BED64
:1000400052EF46E6E6EB70E665BB20E030E080E08C
:100050008BBBAFE3BDE0F3E0A150B040F040E1F76F
:1000600000C000008F5F8A3099F72F5F3F4F263026
:10007000310551F32130310529F02230310521F4C9
:1000800095BBE5CF75BBE3CF2330310539F0243084
:10009000310511F0E5BBDBCF45BBD9CF55BBD7CF81
:0400A000F894FFCF02
:00000001FF
