:1000000010C017C016C015C014C013C012C011C054
:1000100010C00FC00EC00DC00CC00BC00AC009C07C
:1000200008C011241FBECFE5D2E0DEBFCDBF02D095
:10003000B1C0E6CF8FEF8ABB84BB11BA8FEF9FEFC1
:1000400066EB3CEF40B321E08F3F980709F020E0DA
:1000500047FF7EC0222309F47BC065BB45E050E02A
:1000600089E090E087991CC080E090E019C01BBA3D
:1000700035BB40E050E08FEF9FEF20B3237021119C
:1000800016C07FE9E6E821E07150E0402040E1F74A
:1000900000C00000879922C001968A30910510F5B2
:1000A0008699E5CF8BBB20B32370222351F320B375
:1000B0002370213081F120B323702230B1F120B3BD
:1000C0002370233039F77FE7EAE126E07150E04002
:1000D0002040E1F700C00000879BDECF01978A3007
:1000E0009105F0F287992BC045305105F1F1CA0115
:1000F000019620B320B38330910509F446C0C4F5BE
:1001000081309105E9F18230910551F58BED85BB88
:1001100042E050E0A5CF7FE3EDE023E07150E04006
:100120002040E1F700C00000B5CF7FEDE3E924E017
:100130007150E0402040E1F700C00000ABCFCA01A1
:100140000197141615060CF47DCF85E090E07ACF68
:100150008799D1CF222379F235BB40E050E080CFA0
:100160004FEF5FEF892BC1F37BCF80E090E06ACF48
:10017000049709F072CF86E685BB44E050E070CF6B
:1001800080E685BB41E050E06BCF82EF85BB43E06A
:0801900050E066CFF894FFCFA8
:00000001FF
