:1000000010C017C016C015C014C013C012C011C054
:1000100010C00FC00EC00DC00CC00BC00AC009C07C
:1000200008C011241FBECFE5D2E0DEBFCDBF02D095
:10003000ABC0E6CF8FEF8ABB84BB11BA4FEF5FEF47
:1000400071E066EB3CEF90B381E04F3F540709F05D
:1000500080E096FF62C0882309F45FC065BB45E07D
:1000600050E089E090E0869912C080E090E00FC0F7
:10007000EFE9F6E821E0E150F0402040E1F700C070
:100080000000869B22C001978A30910510F5879960
:1000900029C08BBB20B32370222351F320B32370DC
:1000A000213039F120B32370223069F120B323705D
:1000B000233039F7EFE7FAE126E0E150F040204045
:1000C000E1F700C000008699DECF01968A309105E5
:1000D000F0F2869B2EC0141615060CF042C041505B
:1000E0005109B1CF1BBA35BB40E050E08FEF9FEF15
:1000F000D1CFEFE3FDE023E0E150F0402040E1F715
:1001000000C00000BECFEFEDF3E924E0E150F04085
:100110002040E1F700C00000B4CF90B396FB9927D0
:1001200090F9971761F0882351F035BB40E050E01B
:1001300098CF45305105C1F04F5F5F4F84CF4330BA
:100140005105F9F0A4F441305105C1F04230510598
:1001500019F48BED85BB85CF452B39F34FEF5FEF5E
:1001600080CF45E050E06FCF40E050E06CCF4430AE
:10017000510509F073CF86E685BB73CF80E685BB5A
:0C01800070CF82EF85BB6DCFF894FFCFED
:00000001FF
